:100000000C941B040C9453040C9453040C9453044C
:100010000C9453040C9453040C9453040C94530404
:100020000C9453040C9453040C94621C0C941E1CEA
:100030000C9415270C9453040C9453040C945304FF
:100040000C9453040C9453040C9453040C945304D4
:100050000C9453040C943B1D0C9453040C945304C3
:100060000C9453040C9453040C9453040C945304B4
:100070000C9453040C9453040C9453040C945304A4
:100080000C9453040C9453040C9453040C94530494
:100090000C9453040C9453040C9453040C94530484
:1000A0000C9453040C9453040C9453042900000042
:1000B0003A003B003C003D003E003F004000410054
:1000C0004200430044004500460047004800350018
:1000D0001E001F0020002100220023002400250014
:1000E000260027002D002E002A004C004B004A005D
:1000F0002B0014001A000800150017001C0018003F
:100100000C00120013002F003000280049004E00A0
:100110004D00390004001600070009000A000B001A
:100120000D000E000F00330034003200000000000C
:1001300000000000E10004531D001B000600190030
:10014000050011001000360037003800E5000000FF
:10015000000052000000E000E300E20000000000A8
:100160002C000000000000000000E60004516500C3
:10017000E400500051004F00290000003A003B000D
:100180003C003D003E003F00400041004200430073
:10019000440045004600470048002F001E001F0095
:1001A0002000210022002300240025002600270033
:1001B000380027022A004C004B004A002B00140094
:1001C0001A000800150017001C0018000C0012008F
:1001D00013002F143014280049004E004D00390040
:1001E00004001600070009000A000B000D000E00B5
:1001F0000F0036022D003514000000000000000042
:10020000E10001001D001B0006001900050011009F
:100210001000360037002402E50000000000520004
:100220000000E000E300E200000000002C000000FD
:10023000000000000000E60004516500E4005000EA
:1002400051004F00290000003A003B003C003D00F7
:100250003E003F0040004100420043004400450092
:1002600046004700480035001E001F002000210006
:100270002200230024002500260027002D002E0048
:100280002A0049004A004B002B0014001A00080005
:10029000150017001C0018000C00120013002F009E
:1002A000300028004C004D004E00390004001600BC
:1002B000070009000A000B000D000E000F003300BC
:1002C000340032000000000000000000E100640083
:1002D0001D001B000600190005001100100036006B
:1002E00037003800E5000000000052000000E00088
:1002F000E300E200000000002C000000000000000D
:100300000000E60004516500E400500051004F0079
:10031000290000003A003B003C003D003E003F0049
:1003200040004100420043004400450046004700B1
:1003300048002F001E001F00200021002200230083
:100340002400250026002700380027022A00490043
:100350004A004B002B0014001A000800150017007B
:100360001C0018000C00120013002F143014280079
:100370004C004D004E003900040016000700090033
:100380000A000B000D000E000F0036022D00351480
:100390000000000000000000E10001001D001B0043
:1003A0000600190005001100100036003700240275
:1003B000E5000000000052000000E000E300E20061
:1003C000000000002C000000000000000000E6001B
:1003D00004516500E400500051004F00005C000033
:1003E00000500150025003500100010001000100C3
:1003F00004500100010001005F0060006100010085
:10040000C35CC45CC55CC65CC75CC85CC95CCA5CD8
:10041000CB5C01000100010001005C005D005E009A
:1004200001000100010001000100010001000100C4
:1004300001000100010001000100270059005A00DD
:100440005B0001000100010001000100010001004A
:100450000100010001000100010001000000000096
:100460000000000001000100010001000100010086
:100470000100010001000100010001000100000075
:100480000000010000000100010001000000000068
:100490000100000000000000000001000451010004
:1004A0000100010001000100000101010101010141
:1004B0000101020202020202020202030303030319
:1004C00003030304040404040404050505050506E8
:1004D00006060606070707070708080808090909A6
:1004E000090A0A0A0B0B0B0C0C0C0D0D0D0E0E0E4F
:1004F0000F0F0F10101111111212131314141515E0
:1005000016161717181819191A1A1B1B1C1D1D1E51
:100510001E1F2020212222232424252626272829A5
:10052000292A2B2C2D2D2E2F3031323233343536D3
:100530003738393A3B3C3D3E3F40414243444546D3
:100540004748494A4C4D4E4F5051535455565859AF
:100550005A5B5D5E5F616264656668696B6C6D6F56
:100560007072737577787A7B7D7E808283858788C9
:100570008A8C8E8F91939596989A9C9EA0A2A3A503
:10058000A7A9ABADAFB1B3B5B7BABCBEC0C2C4C604
:10059000C9CBCDCFD1D4D6D8DBDDDFE2E4E7E9EBC0
:1005A000EEF0F3F5F8FAFDFF1440C0000401C40FAB
:1005B0007CE14517F4C1C71E6CA24926E482CB2D0D
:1005C0005C634D35D443CF3C50308104C810030CDC
:1005D00040F18413B8D1061B30B28822A8920A2AAF
:1005E00020738C3198530E39207080019850020985
:1005F000103184108811061800F2871F78D209275D
:10060000F0B28B2E68930D36E0738F3D5C60410530
:10061000D440C30C4C214514C401C71B3CE2482301
:10062000B4C2CA2A2CA34C32A483CE392CA04002D7
:10063000A480C2091C6144119441C6180C224820B0
:100640008402CA27FCE24B2F74C3CD36ECA34F3E85
:1006500068900106E070830D58510515D031871C54
:1006600048120924C0F28A2B38D30C33B0B38E3A27
:1006700038D00003B0B0820A28910412A071861904
:100680001852082190328A2808130C3080F38D37D5
:10069000F8D30F3F74C0C106ECA0430E6481C515AA
:1006A000DC61471D4400C103BCE0420B34C1C412ED
:1006B000ACA1461A2482C8219C624A291443CC303A
:1006C0008C234E380404D03F40F490436484D145D9
:1006D00088141248ACA4524A18551451081000004E
:1006E00080F08107F8D0030F6072892570B49146BD
:1006F0009444D248B8D4124BDC64534D00F5934F68
:100700002485D4514815155405010980A10185039C
:1007100019012AB700150126B7009501751081004F
:10072000C0050C0901A101850419012AA0021501C7
:1007300026A002950175108100C005010906A101DE
:100740008506050719E029E71500250195087501BB
:1007500081020507190029EF1500250195F07501A3
:100760008102050819012905950575019102950178
:1007700075039101C005010906A101050719E029CA
:10078000E71500250195087501810295017508811D
:10079000010507190029FF150026FF0095067508B9
:1007A000810005081901290595057501910295013A
:1007B00075039101C009023B00020100A0FA09047F
:1007C0000000010301010009211101000122400084
:1007D000070581030800010904010001030000006E
:1007E000092111010001226D00070582032000018B
:1007F0001201000200000008504B421102000102E9
:100800000001160342004D0038003000760032002F
:100810002000490053004F00000016034B00500019
:10082000720065007000750062006C006900630072
:1008300000000403090411241FBECFEFDAE0DEBF7D
:10084000CDBF04B603FE18C080912B0890912C08F0
:10085000A0912D08B0912E088730904BA740B04B47
:1008600059F410922B0810922C0810922D08109217
:100870002E08E0E0F8E3099513E0A0E0B1E0E0ED38
:10088000F8E502C005900D92A63AB107D9F728E025
:10089000A6EAB3E001C01D92AB32B207E1F70E94B5
:1008A0003C270C94312C0C940000909125089370F7
:1008B00061F081110BC0946090932508109229017A
:1008C0008091240881608093240808958F3110F06E
:1008D0009867F2CF880F880F982BEECF909125085C
:1008E000937071F08093260860932708453B08F0C9
:1008F00044EB409328088091240881608093240869
:100900000895E8EDF0E080818E7F80831092E20010
:100910001092DA001092E100A0EEB0E08C918160BC
:100920008C9380818F77808319BCA7EDB0E08C9188
:100930008E7F8C9380818F7E80831092C50708956F
:100940002091E4003091E50095E6A9012091EC00AA
:10095000822F817020FF06C08091E80080FF06C0D2
:1009600080E008952091E80022FD1AC08091EA07F6
:10097000882389F0853089F08091EB0085FD0FC0D8
:100980002091E4003091E50042175307F9F29150AD
:10099000E1F684E0089582E0089583E0089581E01F
:1009A0000895EF92FF920F931F93CF937C018B01D9
:1009B0000E94A004C82F811117C08091E80085FD16
:1009C0000BC08091E8008E778093E8000E94A0041D
:1009D000882399F3C82F08C0F70181917F01809384
:1009E000F1000150110949F78C2FCF911F910F9100
:1009F000FF90EF9008958091EC0787FF13C08091DE
:100A0000E80082FF06C08091E8008B778093E800C1
:100A100004C08091EA078111F2CF08958091EA071E
:100A20008823D9F38091E80080FFF8CF8091E80017
:100A30008E77ECCF982F9093E900242F762F50E0FB
:100A4000891731F07091EC002091ED005091F00089
:100A500021FD07C09F5F973071F78093E90081E027
:100A600008953091EB003E7F3093EB003091ED0024
:100A70003D7F3093ED003091EB0031603093EB001F
:100A80007093EC002093ED005093F0002091EE0065
:100A900027FDE0CF80E00895B0E0A0E0E2E5F5E0DA
:100AA0000C94382BC8EDD0E088818F7E8883E7EDE9
:100AB000F0E080818160808384E082BF81E0809368
:100AC000C50788818E7F888302EE10E0F8011082CE
:100AD0001092DA0081EEC82ED12CF60110828881A6
:100AE0008F77888388818068888388818F7D8883D9
:100AF00019BC1092EA071092EB071092E9071092C6
:100B0000E80790EEE92EF12CF70180818B7F80833E
:100B100088818160888342E060E080E00E941A055D
:100B2000F60180818E7F8083F801808181608083DF
:100B3000808188608083F70180818E7F80838881B7
:100B400080618883CDB7DEB7E8E00C94542BFC01BC
:100B50008091F2079091F30786179707A0F061152F
:100B6000710529F49091E8009E779093E80090E059
:100B70006115710551F4911108C08091E80082FF60
:100B800034C080E00895BC01F2CF8091EA07882349
:100B9000C1F18530C1F18091E80083FD30C08091C2
:100BA000E80082FDEACF8091E80080FFE1CF8091EC
:100BB000F3002091F200382F6115710519F02830EB
:100BC000310558F091E02830310509F090E020918E
:100BD000E8002E772093E800CBCF81918093F1003D
:100BE000615071092F5F3F4FE7CF8091EA0788235B
:100BF00041F0853041F08091E80083FFBECF81E075
:100C0000089582E0089583E00895089508958091FD
:100C1000C70708952FB7F8946091BC077091BD077E
:100C20008091BE079091BF072FBF089520911101B9
:100C30002223C1F02091C00727FF14C0E62FE695BC
:100C4000E695E695EE31F8F4E80FF92FF11D67709F
:100C500021E030E001C0220F6A95EAF78281822B01
:100C600082830895FC0132962FEF30E041916417A2
:100C700051F02F3F19F4411101C0232F3F5F36304F
:100C8000A9F72F3F09F40895820F911D27FD9A952A
:100C9000FC01628308952091B9073091BA072817A3
:100CA000390771F09093BA078093B907E091B707BD
:100CB000F091B807309721F00084F185E02D099577
:100CC00008952091B5073091B6072817390771F0BC
:100CD0009093B6078093B507E091B707F091B807F6
:100CE000309721F00680F781E02D09950895E09175
:100CF000B707F091B807309729F00190F081E02D07
:100D00000995089580E00895CF93DF93EC01409119
:100D1000AA075091AB076091AC077091AD072FB750
:100D2000F8948091BC079091BD07A091BE07B09147
:100D3000BF072FBF841B950BA60BB70B843F9140B9
:100D4000A105B10518F58091AA079091AB07A09174
:100D5000AC07B091AD078093A6079093A707A09327
:100D6000A807B093A90784EF91E0A0E0B0E08093DA
:100D7000A2079093A307A093A407B093A507D093CD
:100D8000B207C093B107DF91CF9108950E940A0680
:100D90006093A6077093A7078093A8079093A9076D
:100DA00082E390E0A0E0B0E0E2CFFC018581862301
:100DB00051F492819923B9F06923818583FF05C09D
:100DC00081E061110FC080E00895892F8F709295A6
:100DD0009F70982B862F8F7062956F70682B81E0C3
:100DE0009613F1CF089581E0FDCFFA01811101C082
:100DF000FB0109950895E5E2F8E0248130E1231B29
:100E000008F420E0248380912408816080932408E2
:100E10000895E5E2F8E0248130E1230F08F42FEF94
:100E20002483809124088160809324080895E5E25A
:100E3000F8E0438120E1421B08F440E081816281B7
:100E400090E00E946E040895E5E2F8E0438120E11D
:100E5000420F08F44FEF8181628190E00E946E049E
:100E60000895E5E2F8E0628120E1621B08F460E0A9
:100E70008181438190E00E946E040895E5E2F8E0EC
:100E8000628120E1620F08F46FEF8181438190E07D
:100E90000E946E040895E5E2F8E081814381628159
:100EA0008850990B0E946E040895E5E2F8E0818174
:100EB00090E04381628108960E946E0408958091BB
:100EC000250886958695815009F48EE10E94550487
:100ED000089580912508869586958F5F8F3108F05B
:100EE00081E00E9455040895EF92FF920F939701BD
:100EF000201B31092F3F310519F010F02FEF30E0A2
:100F00002095382F320F08F43FEF832F0F91FF9079
:100F1000EF900895EF92FF920F939701201B3109F4
:100F20002F3F310519F010F02FEF30E0322F3095C0
:100F3000482F430F08F44FEF842F620F0F91FF905B
:100F4000EF900895EF92FF920F93972F093438F4A2
:100F5000B701601B71096F3F710519F010F06FEF59
:100F600070E0485F5F4F4131510540F0A901485F93
:100F70005F4F4131510510F06FEF70E06095482FE1
:100F8000460F08F44FEF842F37FF02C02D5F3F4F0D
:100F9000359527953595279560912608620F792F0D
:100FA0000F91FF90EF900895EF92FF920F931F9390
:100FB0000E0D1F2D111DF90137FF03C0F195E195AD
:100FC000F10924E0EE0FFF1F2A95E1F7EF3FF1054D
:100FD00019F014F0EFEFF0E09A0157FF03C03195DC
:100FE0002195310994E0220F331F9A95E1F72E17CE
:100FF0003F070CF4F901E00FF11FEF3FF10519F085
:1010000010F0EFEFF0E0E095282F3E2F230F08F4CB
:101010002FEF822F1F910F91FF90EF900895EF9285
:10102000FF920F93970195E0099F200D311D112428
:101030002F3F310519F010F02FEF30E02095382FB9
:10104000320F08F43FEF832F0F91FF90EF90089538
:1010500022E8241B08F420E0620F08954095282F11
:10106000429F412D1124842F0895E42FF0E0EE0FCC
:10107000FF1FE356FD4F9081921B97FD9195292FFD
:1010800038E1239F212D1124620F08950F931F93A0
:1010900010E0F801EE0FFF1FE356FD4F90819057CF
:1010A00097FD9195000F111FF801E256FD4F008149
:1010B0000052110B2003F001219FF00D112408E3D1
:1010C00010E0091B110997FD139540039001419F02
:1010D000300D1124E20FF31F9F01220F331F2E0F3B
:1010E0003F1F37FF02C021583F4F220F232F221FDF
:1010F000330B620F1F910F9108950F931F93522F7F
:1011000010E0F801EE0FFF1FE256FD4FA081A05244
:10111000BB0B9D015203F001539FF00D1124000FF2
:10112000111FD801A356BD4F0C910057110B40035E
:101130009001419F300D11242E0F3F1F37FF02C039
:10114000215C3F4F96E0359527959A95E1F7620F20
:101150001F910F9108950F931F93522F10E0F801E4
:10116000EE0FFF1FE256FD4FA081A052BB0B9D0169
:101170005203F001539FF00D1124000F111FD801ED
:10118000A356BD4F0C910057110B40039001419F96
:10119000300D11242E0F3F1F37FF02C021583F4F43
:1011A000220F232F221F330B620F1F910F910895DF
:1011B000EF920F93972F23E0029FB00111247595B2
:1011C00067956E0D792F0F91EF900895322F50E0B3
:1011D000FA01EE0FFF1FE256FD4F9081905297FDEE
:1011E0009195440F551FFA01E356FD4F2081231BB3
:1011F000330B290F311D97FD3A95620F0895E42FA7
:10120000F0E0EE0FFF1FE256FD4F6081621B089574
:10121000E42FF0E0EE0FFF1FE356FD4F6081621BED
:101220000895622F0895E42FF0E0EE0FFF1FE356BC
:10123000FD4F408134EE439F412D1124E82FF0E013
:1012400050E0445E5F4FDA01A21BB1099D01B7FF78
:1012500003C031952195310993E0220F331F9A95F0
:10126000E1F7AF01421B530B9A0157FD20E0582FC5
:10127000259F212D1124822F08950E94EA1308959D
:101280000E9480130895FC019B01009729F480E0DF
:1012900077FF2BC080E80895AC0197FF04C0442776
:1012A0005527481B590BB901640F751F37FD10C036
:1012B000241B350BC901A5E0880F991FAA95E1F7FA
:1012C0000E94652B80E2861BF7FF0FC08195089571
:1012D000CB0165E0880F991F6A95E1F7BA01621B9F
:1012E000730B0E94652B80E6EECF0895EF920F936B
:1012F000CF93DF93D72FC82FC9010E19BA010E94CF
:101300004309602F681B7D2F8C2FDF91CF910F91A8
:10131000EF9008950F93CF93DF93D72FC82FC90174
:10132000BA010E944309682F600F7D2F8C2FDF9137
:10133000CF910F910895EF920F931F93CF93DF9367
:10134000D62FC72F182FC9010E19010FBA010E94FD
:101350004309081B202F219F212D1124822F6D2F3F
:101360007C2FDF91CF911F910F91EF9008950F93F4
:101370001F93CF93DF93D62FC72F182FC901212F8B
:10138000201B022FBA010E944309982F990F990F31
:10139000891B800F282F219F212D1124822F6D2F33
:1013A0007C2FDF91CF911F910F910895E82F86FD3B
:1013B000E0952E2F2F7086FD2F5FE695E695E6953A
:1013C000E670F0E0E15DFD4F9181929F902D212D1F
:1013D000112492959F702295207F922B2081920F4D
:1013E00087FD919580E8890F089540910D015091F6
:1013F0000E0125E038E0429FC001439F900D529FAF
:10140000900D1124875E994C90930E0180930D01ED
:10141000890F0895AC018230910508F408959FEF7B
:10142000413E8EE1580740F49A0195E036952795A4
:101430009A95E1F798E0920F61E0E62FE90FFF2718
:10144000FF1F9F0135952795822F229FF001239F33
:10145000F00DF00D11244E175F0738F49FEF920F37
:10146000961758F78FEF860F08952F3FE9F361E045
:10147000620FF6CF0F93CF93DF93D72FC82F47FD7F
:10148000419588E390E0841B910947FD9395889FDF
:10149000B001899F700D700D1124229FC001239F00
:1014A000900D900D1124860F971F0E940A0A982F05
:1014B000990F890F682F600F7D2F8C2FDF91CF91AF
:1014C0000F91089530E020E0869F212D969F200DFA
:1014D000311D1124C9010895AF92BF92CF92DF92BE
:1014E000FF920F931F93CF93DF93362F472FE82F51
:1014F000F0E0E855FB4F71110FC0E4918E2F2E2FB5
:101500006E2F722FDF91CF911F910F91FF90DF907F
:10151000CF90BF90AF900895C72FD0E02491F22EC6
:10152000022F10E056E0659FC0011124EFEFF0E0BC
:10153000BF010E941A2B832F90E0880F991F35E579
:10154000369FD001379FB00D11248A1B9B0B982F1B
:10155000990F980F6F01CC1ADD0AC09ED001C19E71
:10156000B00DD09EB00D11248B2F499FA0011124E6
:10157000452F55276F01C41AD50AC09EA001C19EF0
:10158000500DD09E500D11245F01A91AB108AC9ED8
:101590006001AD9ED00CBC9ED00C1124CD2CDD245E
:1015A000EC19FD09E09FE001E19FD00DF09FD00D07
:1015B0001124ED2F62307105A1F050F46115710511
:1015C00009F49ECF6130710581F0EB2F852F98CF04
:1015D0006430710569F080F06630710509F490CFD0
:1015E000F4CFE22F2B2F8D2F8BCFE22F252F88CFFB
:1015F000EB2F822F2D2F84CF2B2F8F2DE52F80CFF8
:101600002F923F925F926F927F928F929F92AF92B2
:10161000BF92CF92DF92EF92FF920F931F93CF93DF
:10162000DF93CDB7DEB72A970FB6F894DEBF0FBEB3
:10163000CDBF8B837E836D832091260182E1289F1D
:10164000802D11248F838E5E89838A83893510F0E3
:1016500038E53A838091F8078C83FF81EF2FF0E023
:10166000FA87E987CF01880F991F9C0123563D4FC8
:1016700069013B81832F90E0FC013196F887EF836D
:101680008A8199859817E8F081E0E981E83508F0CA
:1016900080E02A960FB6F894DEBF0FBECDBFDF9173
:1016A000CF911F910F91FF90EF90DF90CF90BF905F
:1016B000AF909F908F907F906F905F903F902F9012
:1016C0000895E985FA85E35BFC4F808190912701BD
:1016D0008923F1F020902608309027082F81388543
:1016E0002850384F39015B8010E0FC815F16D0F044
:1016F00020912808129F112D1124B101812F0E94E1
:101700006C0A462F282F672F89859A850E944009E9
:1017100029853A852F5F3F4F3A87298732E0C30EEC
:10172000D11CAECFF30181913F01F601A080A81A30
:10173000BB088180F3018781881A9908AA9C9001CF
:10174000AB9C300D300D1124889CC001899C900DFC
:10175000900D1124820F931F0E940A0A082F609196
:10176000290821E0620F08F46FEFF301EE0FFF1F6D
:10177000E85FF740858996890E94620A7C0194019E
:10178000A501B101812FED81FE8109951B015394C3
:10179000182FABCFB0E0A0E0E0EDFBE00C94382BCD
:1017A0008C01C091260182E1C89FC02D112422E145
:1017B000D22EDC0ECD2C28E52D1510F498E5C92E7F
:1017C0002091290831E0230F08F42FEF30E050E09A
:1017D00040E06FEF7FEF80E090E00E94792B79018D
:1017E000D0E02C2FCC1550F081E0F7E5FD1508F482
:1017F00080E0CDB7DEB7E8E00C94542BFE01E35B4C
:10180000FC4F808190912701892311F14091F807C5
:101810004150042E000C550B47FF1CC0C7016091BE
:10182000290821E0620F08F46FEF0E94620AAC0100
:10183000609126087091270880912808F801099581
:101840000E946C0A462F282F672FCE010E94400964
:101850002196C7CFFA01E850F84F818982130AC058
:10186000FA01EE0FFF1FE850F84F818D928D8E1513
:101870009F05A8F241505109CFCFB0E0A0E0E3E4CA
:10188000FCE00C94392B7C01C091260182E1C89FB9
:10189000C02D112412E11C0F012F193508F008E5A5
:1018A000609129086695669521E0620F08F46FEF54
:1018B0008091F4079091F5070E94620AD82ED0E03B
:1018C000C01748F081E0183508F080E0CDB7DEB7EA
:1018D000E7E00C94552BFE01E35BFC4F8081909177
:1018E0002701892391F06091260870912708809143
:1018F00028082D2D4C2FF70109950E946C0A462FC0
:10190000282F672FCE010E9440092196D9CFB0E041
:10191000A0E0EDE8FCE00C94352B6C01C0912601B1
:1019200082E1C89FC02D112412E11C0FB12E193580
:1019300010F038E5B32E6091290866956695809180
:10194000F4079091F5070E94620AF82E80E48F0D4B
:101950000E94D60990E8A92EA80E8F2D0E94D609C4
:1019600020E8922E980ED0E0CB1548F081E0183593
:1019700008F080E0CDB7DEB7EBE00C94512BFE0110
:10198000E35BFC4F8081909127018923A1F0609156
:1019900026087091270880912808EF2C0C2F292DFC
:1019A0004A2DF60109950E946C0A462F282F672FB1
:1019B000CE010E9440092196D7CFB0E0A0E0E3EE2F
:1019C000FCE00C94332B5C01C091260182E1C89F9E
:1019D000C02D112412E11C0FF12E193510F038E53D
:1019E000F32E6091290866958091F4079091F50790
:1019F0000E94620A782ED0E0CF1548F081E01835B9
:101A000008F080E0CDB7DEB7EDE00C944F2BFE017F
:101A1000E35BFC4F8081909127018923C9F1CE01BE
:101A2000880F991F895C9D4FFC01EA59FF4F208167
:101A3000422F4057550B6A0189599F4FFC01808105
:101A4000282F2052330B4901449F9001459F300DB0
:101A5000300D1124889CC001899C900D900D11249B
:101A6000820F931F0E940A0A082F60912608709126
:101A7000270880912808E72C9401A601F501099513
:101A80000E946C0A462F282F672FCE010E94400922
:101A90002196B2CFB0E0A0E0E0E5FDE00C94382B59
:101AA0007C01C091260182E1C89FC02D112412E162
:101AB0001C0FD12E193510F038E5D32E609129086E
:101AC00066958091F4079091F5070E94620AC82EEE
:101AD000D0E0CD1548F081E0183508F080E0CDB7B2
:101AE000DEB7E8E00C94542BFE01E35BFC4F8081F1
:101AF00090912701892311F1CE01880F991F895CEC
:101B00009D4FFC01E959FF4F20812052330B8A5928
:101B10009F4FFC0140814057550B60912608709102
:101B20002708809128080C2DF70109950E946C0A5E
:101B3000462F282F672FCE010E9440092196C9CF3A
:101B4000B0E0A0E0E6EAFDE00C94382B182F80917D
:101B50001001811323C090912508937020910F01EB
:101B600030E081E09217130609F480E081708093E1
:101B7000280180912A0890912701981739F08093C5
:101B8000270140E060E080E00E943D091F3190F4B1
:101B9000E12FF0E0ED5CF34D0C94982B81E0E6CF63
:101BA00080912801882309F4C2C040E060E080E011
:101BB0000E943D0980E0BBC0C091260182E1C89F20
:101BC000C02D112402E10C0FF02E093510F058E55C
:101BD000F52E6091260870912708809128080E94B0
:101BE0006C0AE62ED72EC82ED0E0CF1528F081E063
:101BF000083508F49CC0DECFFE01E35BFC4F80811A
:101C000090912701892331F02C2D4E2D6D2DCE0181
:101C10000E9440092196E9CFC091260182E1C89F28
:101C2000C02D112402E10C0FE02E093510F048E51B
:101C3000E42ED0902708C09028082091290830E48D
:101C4000F32E3F2D329F312D1124F32ED0E0CE15EF
:101C500070F6FE01E35BFC4F8081909127018923A0
:101C6000D9F0FE01EE0FFF1FE356FD4F6081F69E97
:101C7000B001112425E0759567952A95E1F78091CB
:101C80002608680F7D2D8C2D0E946C0A462F282F68
:101C9000672FCE010E9440092196D9CFC09126011D
:101CA00082E1C89FC02D112402E10C0FF02E0935EE
:101CB00010F088E5F82EE0902608D0912708D09003
:101CC0002808609129086695669566958091F407C5
:101CD0009091F5070E94620A0E94D609805887FDFC
:101CE0008195880F282F3D2D239F212D1124822F90
:101CF0006E2D7D2F0E946C0AE62ED72EC82ED0E0C6
:101D0000CF1508F074CFFE01E35BFC4F808190910A
:101D10002701892331F02C2D4E2D6D2DCE010E94EF
:101D200040092196EDCF83E199E00E943D0C90910E
:101D300026019F5F9093260181110CC082E0809361
:101D4000290180912801811105C0111103C083E090
:101D500080932901CDB7DEB7E8E00C94542B87EBD4
:101D600099E00E944A0DE3CF8BE999E00E94DD0CD7
:101D7000DECF81E199E0D9CF88E099E0D6CF8FEF2F
:101D800098E0D3CF86EE98E0D0CF88ED98E0EECF04
:101D90008AE39AE0E6CF8AE899E0E3CF86E799E024
:101DA000E5CF8BEA98E00E94870CC1CF8DE798E0E1
:101DB000FACF86E498E0F7CF85E398E0B6CF80913C
:101DC000260102E1809F000D11244091F4075091FB
:101DD000F5076091F6077091F7078091B004909134
:101DE000B104A091B204B091B30484179507A6077B
:101DF000B70708F0FCCE0E94F509F82E0E94F509FD
:101E000098E5891BF0F7890FC82FD0E0FE01E35B4E
:101E1000FC4F809127019081892309F4E8CE20E0CE
:101E200040E060E0F1FC13C00E94F509F82E0E942A
:101E3000F509782F76952FE7720F08F47FEF6F2D55
:101E4000809128080E946C0A462F282F672FCE0108
:101E50000E9440092091290830E1230F08F42FEF58
:101E600060E1822F90E00E94620ABC0184EF91E061
:101E70000E941A2B8091F4079091F507A091F60724
:101E8000B091F707860F971FA11DB11D8093B00475
:101E90009093B104A093B204B093B304A8CE8EE2A1
:101EA00098E00E94CA0B43CF88E298E0FACF6FE037
:101EB00078E080E00AC08091F80721E0382F321BDB
:101EC00008F430E0832F64ED77E00E94000B2FCF01
:101ED00064ED77E0EECF8091F80721E0382F321BD8
:101EE00008F430E0832F62EA77E0EFCF62EA77E030
:101EF000E0CF8091F80721E0382F321B08F430E062
:101F0000832F6AE877E0E1CF6AE877E0D2CF80916B
:101F1000F80721E0382F321B08F430E0832F64E704
:101F200077E0D3CF64E777E0C4CF80E00895F894FA
:101F3000E82FE295EF70F0E031A1282F2F7081E0BB
:101F400090E001C0880F2A95EAF7982F9095932387
:101F500091A392A1892B82A3789408959091C007B0
:101F600092FF06C0282F28712830F9F4877F8460FB
:101F700093FF06C0282F28712831F1F4877E8461F1
:101F80002091C10720FF06C0382F38713830D9F4AE
:101F9000877F816021FF06C0282F28712831D1F466
:101FA000877E816194FD877E0895282F24712430D7
:101FB000F9F68B7F8860DCCF282F2471243101F75C
:101FC0008B7E8861DDCF382F3171313019F78E7FEC
:101FD0008860E0CF282F2171213121F78E7E886122
:101FE000E1CF972F7630A8F4613198F470E021E1C9
:101FF000929F600D711D1124FB0196E6899FE00DF3
:10200000F11D1124EE0FFF1FE455FF4F85919491B0
:10201000089580E090E00895CF93DF93EC0182383B
:102020009105B1F108F040C08133910509F49DC0DC
:1020300048F58932910509F48DC08A9709F49CC04E
:10204000C11522E5D20708F0BDC0C11531E5D3079F
:1020500008F024C1C83ED10508F0A3C0C13ED10597
:1020600088F5C83AD10508F08EC0C53AD10508F008
:10207000F6C0C130D10531F1209721F1C430D1052E
:1020800008F545C08533910509F45FC0C997C1F6CD
:102090008091C007837009F036C18091C10783FF2A
:1020A00011C0C9E2D0E00EC0833E910599F170F4F1
:1020B000803E910501F1823E910511F68091C007A5
:1020C00082FD21C0CE01DF91CF910895863E91051A
:1020D00061F1873E910571F1843E910509F0B0CF21
:1020E0008091C10781FFEECF8091C007C7EED0E09D
:1020F00084FD0DC0E7CF8091C00780FD33C0909173
:10210000C10790FFDFCFC3EED0E084FFDBCFD0E08C
:10211000C0E0D8CF8091C00782FDF2C09091C10786
:1021200090FDF1C084FFCECFF2CF8091C00783FD38
:10213000DDCFC8CF8091C00783FDE8C09091C10773
:1021400091FFF0CFC4EED0E0BDCF8091C00785FFF6
:10215000B9CFA7CF8091C00785FDDBC08091C107B3
:1021600083FFB0CFC9E3D0E0ADCF8091C00786FF39
:10217000A9CFCAE2D0E0A6CF8091C00786FFA2CF48
:10218000C1E3D0E09FCFCF3BD10508F6C85AD0E0DD
:10219000CC0FDD1FC651DE4F0990D881C02DD4640D
:1021A00091CFC11540E5D40708F064C0C11580E4A3
:1021B000D80708F05CC0CE019A9581159F4108F4BC
:1021C00081CFA5CFC11536E5D30718F5C11545E573
:1021D000D40708F07CC0C11584E5D80708F072C0A8
:1021E0009E01237033279C2F96959695C115D34554
:1021F00008F459C0C1E0D0E002C0CC0FDD1F2A9521
:10220000E2F730E2939FC0011124C82BD92BDA6882
:1022100059CFC1158AE5D80778F4C11529E5D20749
:1022200008F060C0C11538E5D30708F470CFDC2F83
:10223000CC27C06FD06A46CFCE0190568115904210
:1022400008F065CF8D2F8F710E94AE0F90E0982F10
:10225000882788279F719C012C2BE90141C0C55A12
:10226000D0E0C951DE4FC881D0E0D0642BCFDF7001
:10227000D06A28CFCE018370992721E030E002C0D8
:10228000220F331F8A95E2F7C695C69580E2C89F54
:10229000E0011124C22BD32BDD6814CFDC2FCC2717
:1022A000C16FD06A0FCFC1E0D0E002C0CC0FDD1FFC
:1022B0002A95E2F720E2929FC0011124C82BD92B66
:1022C000DC6800CFDC2FCC27C46FD06AFBCE8C2F0C
:1022D0000E94AE0FC82FD0E0DC2FCC27CC27DF71B7
:1022E000D062F0CE8C2F8F700E94AE0F34E0D69566
:1022F000C7953A95E1F7CF709C2FEC01D069E2CEFB
:10230000C2EED0E0DFCEC0EED0E0DCCEC6EED0E054
:10231000D9CEC5E3D0E0D6CE80915C048111109275
:102320005C040895809590915B04982390935B04DE
:102330000895809590915A04982390935A04089593
:10234000909111019923D1F09091C00797FF16C089
:10235000E82FE695E695E695EE31E0F4F0E0E855F5
:10236000FC4F282F277081E090E001C0880F2A954C
:10237000EAF780959281892382830895EAEAF3E05F
:102380009191891303C0DF0111971C9293E0E03B08
:10239000F907B1F7089580913804909107049813D4
:1023A00001C008958F5F8770FACFB0E0A0E0EBED39
:1023B000F1E10C94372B7C0100917A0410917B049D
:1023C00080915D0490915E04082B192BCFE0D0E042
:1023D000CC24C394D12CBC2EC6010C2E02C0880F75
:1023E000991F0A94E2F780239123892B49F42197BE
:1023F00090F7B12C8B2DCDB7DEB7E9E00C94532BC1
:10240000B7018C2F0E94F10F0E940C10019779F3F5
:10241000F1CFCF93DF93EC010E94D511BE010E9452
:10242000F10F0E940C10DF91CF910895963078F54E
:10243000813168F5E82FF0E081E1989FE00DF11D12
:1024400011249E2F977083E0F695E7958A95E1F722
:10245000EE0FFF1FEE0FFF1FE353FC4F50E040E075
:1024600080E0219130E0092E02C0369527950A942C
:10247000E2F721703327042E01C0220F0A94EAF7F5
:10248000822B4F5F5F4F4430510559F7089580E02C
:102490000895963098F5813188F5E82FF0E081E1D4
:1024A000989FE00DF11D11248E2F877041E001C02F
:1024B000440F8A95EAF783E0F695E7958A95E1F768
:1024C000EE0FFF1FEE0FFF1FE353FC4F30E020E045
:1024D00070E05191DF011197CB01022E02C0969559
:1024E00087950A94E2F78170819585278423852753
:1024F0008C932F5F3F4F2430310559F70895FC012D
:1025000083819481892B29F08081918189238F3F58
:1025100051F480E00895843FE1F717C0883EA8F0A9
:10252000813FB9F712C0808191810E940912929572
:102530009F70963099F358F4925F9F70923048F7ED
:10254000803F19F040F7883E20F781E008959A5FB8
:10255000F4CF9C013A9521153F4150F5FC01EE273F
:10256000F170BC0166277270AC01442754709C0165
:102570002227387094FF0EC080E1EF2B09F480E031
:10258000672B09F08062452B09F08064232B89F0CA
:102590008068089581E0EF2B09F480E0672B09F053
:1025A0008260452B09F08460232B19F08860089520
:1025B00080E008958093C2077093C4076093C307B7
:1025C0008091EA07843001F582E08093E9008FEF83
:1025D0009091E800815095FD06C095ED9A95F1F730
:1025E00000008111F5CF8091E80085FF0DC050E01B
:1025F00040E063E070E082EC97E00E94D1048091BB
:10260000E8008E778093E8000895BC0184E00E9482
:10261000DA120895BC0183E00E94DA120895CF9384
:10262000DF93EC01809111018823B1F18091C00703
:1026300087FF32C060E282E08093E9008FEF9091E3
:10264000E800815095FD06C095ED9A95F1F70000E0
:102650008111F5CF8091E80085FF1BC080911101A9
:1026600070E050E040E0811104C050E040E068E0DC
:1026700070E0CE010E94D1048091E8008E778093B3
:10268000E80080E2FE01A8ECB7E001900D928A9587
:10269000E1F7DF91CF91089568E081E0CDCF81E04F
:1026A0008093E00080E28093D8001092C9008FE10F
:1026B0009EE40197F1F700C0000087E090EBDC0199
:1026C00080932B0890932C08A0932D08B0932E088C
:1026D00088E19CE00FB6F894A895809360000FBE47
:1026E00090936000FFCFE2E1F1E08083618324E614
:1026F00030E042E050E0BF0180E60E94F92A0895F0
:10270000A4E0B0E0E6E8F3E10C943B2BF62E042FB6
:10271000122F8835910508F059C0880F991F880F2E
:10272000991FBC0168557A4F44E050E0CE010196F4
:102730000E94C02B8981282F237030E086958695D2
:102740004A81942F9295990F990F907C692F682B4D
:10275000842F86958695782F7370EFE5F1E02E9F94
:10276000C0012F9F900D3E9F900D11248D5B994FBE
:10277000680F791FFB01F082542F52955F704B81D7
:10278000E42FE295E07F6E2F652B542F52955F70FA
:10279000752F7370680F791FFB0100834295469572
:1027A000469543705C81E52FEE0FEE0F6E2F642B84
:1027B000752F7295769576957370860F971FFC012D
:1027C00010832E5B394F81E0F90180832496E5E088
:1027D0000C94572BFF920F931F93CF93DF93182FD7
:1027E000062FF42ED0E0C0E02F2D402F612FCE0118
:1027F0000E9480132196C835D105B1F7CDB7DEB759
:10280000E5E00C94572B0F931F93CF93DF938091A8
:102810004206882309F441C065EC8EEF0E947313D1
:1028200060E08DEF0E947313D0E0C0E004EB10E095
:10283000CE01B8010E94652B8093120182E1FE0156
:10284000ED5BF94FA3E1B1E001900D928A95E1F7BC
:1028500024E630E043E150E062E171E080E60E946E
:10286000F92A892BD1F46296C63581E0D807E1F4C4
:1028700082EA8093120189E0E9E9F7E0A3E1B1E09F
:1028800001900D928A95E1F724E630E04AE050E0AD
:1028900062E171E080E60E94F92A10924206DF911F
:1028A000CF911F910F910895C43BD10509F665ECB6
:1028B0008EEF0E94731361E08DEF0E947313B8CF07
:1028C000A4E0B0E0E6E6F4E10C94362B0E94592A2D
:1028D00065EC8EEF0E94731364E08DEF0E9473131A
:1028E00061E080E00E9473136FEF81E00E94731338
:1028F00067E782E00E9473138FE39CE90197F1F789
:1029000000C0000008EA15E028E0E22E27E0F22EE1
:102910003FE5C32EDD24D394BB24BA94AA24A39408
:1029200044E050E0B801CE0101960E94C02B89819D
:10293000282F237030E0869586954A81942F9295B2
:10294000990F990F907C692F682B842F8695869517
:10295000782F73702C9DC0012D9D900D3C9D900D86
:1029600011248E519B4F680F791FFB01B082542FA9
:1029700052955F704B81E42FE295E07F6E2F652BBF
:10298000542F52955F70752F7370680F791FFB017C
:10299000B08242954695469543705C81E52FEE0FD7
:1029A000EE0F6E2F642B752F72957695769573705A
:1029B000860F971FFC01B0822F5B394FF901A0826F
:1029C0000C5F1F4FE016F10609F0AACF65EC8EEF01
:1029D0000E94731362E08DEF0E94731392EEE92E52
:1029E00094E0F92E10E0F70161917F01812F0E94A0
:1029F00073131F5F143BB9F765EC8EEF0E947313DE
:102A000063E08DEF0E94731386E9E82E85E0F82ECF
:102A100010E0F70161917F01812F0E9473131F5F06
:102A20001B3AB9F7109241062496EAE00C94522B17
:102A30004F925F926F927F928F929F92AF92BF92CE
:102A4000CF92DF92EF92FF92CF93C090DD04D090AF
:102A5000DE04E090DF04F090E0048FB7F89440903B
:102A6000BC075090BD076090BE077090BF078FBF36
:102A7000530142018C189D08AE08BF080E940A0647
:102A80006093DD047093DE048093DF049093E00490
:102A9000A091B404E4EBF4E02A2F30E04FEFC40E31
:102AA000D41EE11CF11CC418D508E608F708A313CE
:102AB0002AC02093B4042091E104C0E0211108C091
:102AC00020912508C22FC37019F0C22FC695C69554
:102AD00020912901213009F440C0222339F122300C
:102AE00009F44CC0233009F454C0CF91FF90EF900B
:102AF000DF90CF90BF90AF909F908F907F906F901E
:102B00005F904F900895418D528D2A01712C612C58
:102B1000C414D504E604F70420F421503F5F329634
:102B2000C6CF480D591D528F418FF8CF1092260104
:102B30006093F4077093F5078093F6079093F70777
:102B400089E2E4EBF4E0A8EFB7E001900D928A95FA
:102B5000E1F781E080932901C8CF8C2F0E94A00D5E
:102B6000CC2319F20E94770681FFBFCF2FEF4FEFE2
:102B70006FEF82E390E00E944009B7CFC09310014D
:102B800080912508837080930F010E94031483E0D5
:102B9000E1CF80912408882351F046E050E06CE1B9
:102BA00070E085E298E00E94FD2B1092240840918D
:102BB000F4075091F5076091F6077091F7072FB76A
:102BC000F8948091BC079091BD07A091BE07B09189
:102BD000BF072FBF841B950BA60BB70B4097A10512
:102BE000B10508F482CF109229017FCFE5E2F8E029
:102BF0008DE1808380912A0190912B01A0912C017D
:102C000081839283A3838FE784838FEF858346E05C
:102C100050E06CE170E0CF010E94FD2B109224087F
:102C20000895CF9384E090E00E94EF2BC82F82E2BA
:102C300090E00E94EF2B982F8C2FCF910895CF9387
:102C400080915A0490915B04892B8093A803909102
:102C50005C049923B1F0892B8093A8038091110122
:102C6000882309F447C08091C00787FF43C08EE1E5
:102C7000EAEAF3E090E0815008F03EC091110E9432
:102C80008C11C091AE07C0958091A803C823809194
:102C9000AF07C82BC093A80340E250E06AE374E09A
:102CA00088EA93E00E94C92B892B11F180E2E8EABF
:102CB000F3E0AAE3B4E001900D928A95E1F7E09188
:102CC000B707F091B807309799F0809111018823E8
:102CD00049F08091C00787FF05C0C093A90386E033
:102CE0008093A8030280F381E02D88EA93E00995A0
:102CF000CF91089586E0BCCF2191222309F4BBCF68
:102D00009F5FB9CF90E080E00E94610690E080E094
:102D10000E944B0610925B040E941F160895909328
:102D20007B0480937A040E948216089521E030E0AB
:102D300002C0220F331F8A95E2F7209530958091CB
:102D40007A0490917B04822393230E948F16089526
:102D5000909139048095892380933904282F277016
:102D600091F4282F082E000C330B9217130659F0FC
:102D70009091C10792FF07C08595859585950E9422
:102D8000961610923904089521E030E002C0220F17
:102D9000331F8A95E2F780917A0490917B04822B0D
:102DA000932B0E948F16089590935E0480935D0488
:102DB0000E948216089510925A0480911101EAEA45
:102DC000F3E0882361F08091C00787FF08C08EE19F
:102DD000DF011D928A95E9F70E948216089586E028
:102DE000F7CFAAE2B0E0E7EFF6E10C943D2B8CEED2
:102DF00097E02091F100FC012193CF01F7E0843F9F
:102E00009F07B9F78091ED07833009F470C0B8F4DB
:102E1000813009F447C0823009F4B1C08091E800E4
:102E200083FF7EC28091EC079091ED079A3008F005
:102E300077C2E92FF0E0EE5AF34D0C94982B8A30CC
:102E400009F48CC08B3009F46FC0893039F7809158
:102E5000EC07813219F78091F0079091F107029702
:102E6000E8F68091E800877F8093E8008091E80091
:102E700082FF38C09091F3008091F200029731F404
:102E80008091F100813011F0863021F48091F100C1
:102E90008093C7078091E8008B778093E8000E94B9
:102EA000FB04BCCF8091EC07813A09F0B7CF809149
:102EB000E800877F8093E8008091F0079091F10708
:102EC000892B61F460E288EC97E070E00E94A7052E
:102ED0008091E8008B778093E800A0CF60E090E0DD
:102EE00080E0F3CF8091EA078111C0CF97CF809126
:102EF000EC07813A09F092CF8091F0079091F107A9
:102F0000892B09F08BCF8091E800877F8093E800C0
:102F10008091E80080FFFCCF809111018093F10047
:102F20008091E8008E77B9CF8091EC07813209F06B
:102F300075CF8091F0079091F107892B09F06ECF42
:102F40008091E800877F8093E8000E94FB048091D5
:102F5000EE07809311010E94DB1660CF8091EC0791
:102F6000813209F05BCF8091E800877F8093E80091
:102F70000E94FB048091EF078093C6074FCF80919A
:102F8000EC07813A09F04ACF8091E800877F80936F
:102F9000E8008091E80080FFFCCF8091C607BECF9B
:102FA000803899F0823809F0BBC18091F0078F70AA
:102FB000873008F0B5C18093E9008091EB0085FB74
:102FC000882780F91092E90006C08091E807909167
:102FD000E907911182609091E800977F9093E80053
:102FE0008093F1001092F1008091E8008E7794C1F7
:102FF000882309F482C1823009F092C18091EE07E2
:10300000811185C18091F0078F702FEF280F263036
:1030100008F086C18093E9002091EB0020FF77C182
:10302000933031F48091EB0080628093EB006FC1AC
:103030009091EB0090619093EB0021E030E001C0B3
:10304000220F8A95EAF72093EA001092EA00809115
:10305000EB008860EACF811163C11091EE071F7702
:103060008091E3008078812B8093E3008091E800D9
:10307000877F8093E8000E94FB048091E80080FF36
:10308000FCCF8091E30080688093E30082E011111F
:1030900083E08093EA0744C18058823008F040C141
:1030A0008091EE079091EF078C3D23E09207A1F508
:1030B00083E08A838AE289834FB7F894DE0113960E
:1030C00020E03EE051E2E32FF0E050935700E4911E
:1030D00020FF03C0E295EF703F5FEF708E2F90E00E
:1030E000EA30C0F0C7968D939D932F5F243159F736
:1030F0004FBF8091E800877F8093E8006AE270E02C
:10310000CE0101960E94A7058091E8008B778093FD
:10311000E80006C1C096E7CF4091F0075091F10753
:10312000292F33272330310509F444C078F52130A5
:10313000310509F46FC08BE390E0E5EBF7E0223056
:10314000310509F0EDC02091E800277F2093E800C9
:103150002091F2073091F3078217930708F49C013E
:1031600040E02115310509F064C0411162C0809131
:10317000E80082FDC9CF8091EA07882329F28530D3
:1031800019F28091E80083FFF2CFBECF21323105E2
:10319000A9F12232310509F0C3C04115510509F4E6
:1031A00043C04130510509F0BBC08DE690E0E8E036
:1031B000F7E0C9CF992781309105C1F0009759F008
:1031C000029709F0ADC0E2E0F8E0E4918E2F90E0C4
:1031D000E2E0F8E007C0E2E3F8E0E4918E2F90E04F
:1031E000E2E3F8E0009709F49BC0ADCFEAE1F8E034
:1031F000E4918E2F90E0EAE1F8E0F4CF411551051B
:1032000071F04130510509F08BC089E090E0E0EEAB
:10321000F7E099CF82E190E0E0EFF7E094CF89E02A
:1032200090E0E7ECF7E08FCF80E490E0E5E7F7E0AF
:103230008ACF8091EA07882309F466CF853009F4A4
:1032400063CF8091E80083FD5FCF8091E80082FD2D
:103250008ECF8091E80080FF84CF9091F300809121
:10326000F2002115310519F08830910550F041E048
:10327000089709F040E08091E8008E778093E8009D
:1032800070CF44914093F10031962150310901965D
:10329000E8CF803809F044C08091E800877F8093B0
:1032A000E8008091EB078093F1009ECE811138C039
:1032B0001091EE071230A0F58091E800877F80938F
:1032C000E8001093EB070E94FB04112311F084E047
:1032D00005C08091E30087FDFACF81E08093EA0783
:1032E00042E061EC81E00E941A0542E261EC82E07A
:1032F0000E941A058091EA0713C08091EE07813081
:1033000079F481E0933009F080E08093E90710922E
:10331000E9008091E800877F8093E8000E94FB0429
:103320008091E80083FF0AC08091E800877F809346
:10333000E8008091EB0080628093EB00AA96E3E0C6
:103340000C94592B0E94DB162FEF84E39CE0215054
:1033500080409040E1F700C0000088E19CE00FB69B
:10336000F894A895809360000FBE90936000FFCF03
:10337000882321F00E9492110E941F16089588232D
:1033800039F090915B04982B90935B040E941F1678
:103390000895882321F00E9499110E941F16089514
:1033A000882339F090915A04982B90935A040E94E4
:1033B0001F160895882339F19CEF980F913A28F44D
:1033C0000E94A0110E941F16089590E2980F983055
:1033D00050F4877091E001C0990F8A95EAF7892F20
:1033E0000E949911EFCF9BE5980F933028F490E05D
:1033F00080E00E9461060895885A873120F490E0A9
:1034000080E00E944B060895FF920F931F93CF9385
:10341000DF93F82E0091B3071091B4070115110541
:1034200009F449C01092B2071092B1071092AE078A
:103430001092AF07D8011796CD91DC919E013A9575
:1034400021153F4108F4D07ED1E0C11101C0D0E088
:10345000D8011A96ED91FC911B97309731F01C968C
:103460006D917C9180E00995D823DD2339F08CEFB4
:103470008C0F813A30F58C2F0E94A011FF2099F01B
:10348000E091B307F091B407818584FD0CC0809171
:10349000B007882341F0808191819C01215031093E
:1034A000213B3D45A0F00E941F161092B4071092D8
:1034B000B3071092B007C801CDB7DEB7E5E00C94B2
:1034C000572B0E941F168C2F0E94DA19D7CF0E940B
:1034D0008406E9CFCF93C82F8823C9F18CEF8C0FD6
:1034E000813AB8F580911101882301F18091C007DC
:1034F00087FF1CC0EC2FE695E695E695F0E0E855D1
:10350000FC4F828190E04C2F477021E030E002C0F8
:10351000220F331F4A95E2F782239323892B81F0F0
:103520008C2F0E94A0110E941F160AC0EAEAF3E045
:1035300080EB93E02191C21799F38E179F07D1F783
:103540006C2F88EA93E00E9416060E941F16CF9106
:10355000089580E28C0F883068F4C77021E030E075
:1035600001C0220FCA95EAF780915A04822B8093FA
:103570005A04EBCFEBE5EC0FE33040F4F0E0E95117
:10358000FE4F808190E00E946106E1CFC85AC731AA
:10359000F0F6EC2FF0E0EE0FFF1FE651FE4F8081BA
:1035A00091810E944B06D3CFCF93DF93EC010E9411
:1035B000A9129E01205E31092830310510F02097B4
:1035C00041F40E94D0198C2F0E946A1ADF91CF918A
:1035D00008950E94BF19F7CFB0E0A0E0E2EFFAE152
:1035E0000C94322B7C016B01EA014901A090C803C5
:1035F000B090C903A114B104A1F08A2D0E94DA1978
:10360000C5010E94A91220EEA21AB10848E0A41632
:10361000B10408F082C00E94C9191092C903109227
:10362000C803F6011281112309F482C060905A0484
:1036300070905C0480915B0486298729982F91758E
:1036400050E040E011F041E150E0982F927230E0FC
:1036500020E011F022E230E0242B352B847409F0B5
:103660005FC090E080E0282B392B2C233D232C17C2
:103670003D0709F04CC0F601808191810E9416122D
:1036800021E030E002C0220F331F8A95E2F7540197
:1036900090E080E0602F70E086179707C4F5F50191
:1036A000408151814E155F0509F03DC0448155812F
:1036B00042235323452BB9F1C701905681159042FF
:1036C00030F020E4F21AE11440E1F40620F4F601AF
:1036D0008581807FE1F08C2F872129F08C2F8095C8
:1036E000782270925C048C2F0E9499118C2F0E947A
:1036F00092110E941F16F501828193819093C90354
:103700008093C8030E94D41A60925A0410E0812F5B
:10371000CDB7DEB7EEE00C944E2B0E94B8197DCFEA
:1037200084E490E0A0CF0196F6E0AF0EB11CB4CFD8
:1037300011E0EDCF68EE7EEF90E080E00E942B2C50
:1037400060E082E090E00E940D2C60E083E090E079
:103750000E940D2C10925E0410925D0460E084E0E3
:1037600090E00E940D2C64E082E290E00E940D2C1B
:1037700060E085E090E00E940D2C60E086E090E043
:103780000E940D2C6FEF87E090E00E940D2C40E02E
:1037900050E0BA0188E090E00E941F2C60E08DE0CC
:1037A00090E00E940D2C40E050E0BA0188E190E0EA
:1037B0000E941F2C60E087E190E00E940D2C40E009
:1037C00050E0BA018CE190E00E941F2C70E060E0B4
:1037D00080E290E00E942B2C40E050E0BA0188E1AA
:1037E00090E00E941F2C40E050E0BA018FE090E092
:1037F0000E941F2C40E050E0BA0183E190E00E945B
:103800001F2C0895CF93C091C107C2FB992790F94F
:10381000981791F080FBC2F9C093C1076091C0076F
:1038200084E090E00E940D2C6C2F82E290E00E94D8
:103830000D2C82E00E94A816CF9108951F920F923E
:103840000FB60F9211242F933F934F935F936F9373
:103850007F938F939F93AF93BF93CF93DF93EF9318
:10386000FF93D091E900DF708091EC00C82FC17008
:1038700080FDC0E81092E9008091F000877F80937E
:10388000F00078940E94F1161092E9008091F00007
:1038900088608093F000CD2BCF70C093E900FF913A
:1038A000EF91DF91CF91BF91AF919F918F917F91D8
:1038B0006F915F914F913F912F910F900FBE0F909D
:1038C0001F9018951F920F920FB60F9211242F93ED
:1038D0003F934F935F936F937F938F939F93AF9398
:1038E000BF93EF93FF938091E10082FF09C0809125
:1038F000E20082FF05C08091E1008B7F8093E100B0
:103900008091DA0080FF24C08091D80080FF20C021
:103910008091DA008E7F8093DA008091D90080FF59
:103920009DC080E189BD82E189BD09B400FEFDCF63
:1039300081E08093EA078091C507811109C00E9448
:1039400081040E944C058091E20084608093E20033
:103950008091E10080FF17C08091E20080FF13C0DA
:103960008091E2008E7F8093E2008091E20080618E
:103970008093E2008091D80080628093D80019BCC7
:1039800085E08093EA078091E10084FF2BC080915D
:10399000E20084FF27C080E189BD82E189BD89B54D
:1039A000982F917080FFFBCF8091D8008F7D8093FE
:1039B000D8008091E1008F7E8093E1008091E20049
:1039C0008F7E8093E2008091E20081608093E2002C
:1039D0008091EB07882309F447C084E08093EA07CD
:1039E0008091EA078091E10083FF27C08091E20087
:1039F00083FF23C08091E100877F8093E10082E014
:103A00008093EA071092EB078091E1008E7F80930C
:103A1000E1008091E2008E7F8093E2008091E200DD
:103A200080618093E20042E060E080E00E941A053D
:103A30008091F00088608093F000FF91EF91BF913A
:103A4000AF919F918F917F916F915F914F913F9136
:103A50002F910F900FBE0F901F90189519BC1092C8
:103A6000EA071092C50774CF8091E30087FD93E0C9
:103A70009093EA07B5CF78941F921FB61F92112436
:103A80008F939F93AF93BF938091BC079091BD0795
:103A9000A091BE07B091BF070196A11DB11D8093F3
:103AA000BC079093BD07A093BE07B093BF07BF911B
:103AB000AF919F918F911F901FBE1F9018959C01F1
:103AC0004FB7F8948091BC079091BD07A091BE07B5
:103AD000B091BF074FBF821B930B08952FB7F89487
:103AE0008091BC079091BD07A091BE07B091BF0720
:103AF0002FBF08950F931F93CF93DF93C62FD42F1B
:103B0000022FFC0182818823A9F0609323080E9480
:103B10006E1D9093220880932108C77081E001C038
:103B2000880FCA95EAF70E94D019DF91CF911F91B3
:103B30000F91089580912308681335C08091210862
:103B4000909122080E945F1D883C910560F510E26B
:103B50001D0FCD17B9F080E28C0F883040F4C7708C
:103B600081E001C0880FCA95EAF70E94C919183090
:103B700048F481E09D2F977001C0880F9A95EAF76D
:103B80000E94D019802F0E946A1A802F0E94DA1991
:103B9000183058F6D77081E001C0880FDA95EAF73F
:103BA0000E94C919C2CFC77081E001C0880FCA95B1
:103BB000EAF7F6CFA5E0B0E0E0EEFDE10C94342B9F
:103BC0006C01FC0183819481892B31F0808191818A
:103BD00089238F3F09F071C52596ECE00C94502B9A
:103BE0000E94D511182F682F89819A810E9449124D
:103BF00069817A81812F0E94F10F7C0100E02DE222
:103C000031E047E750E0B6010E94EC1A8823B1F199
:103C100001E12DE231E042E250E0B601C7010E942D
:103C2000EC1A882359F10EE023E931E045E550E034
:103C3000B601C7010E94EC1A882301F1F601028146
:103C4000002371F1F0E6EF16FDE5FF06A1F021E695
:103C5000E2162DE5F20649F03FE5E3163DE5F306F1
:103C6000F9F480910001882331F01092000180E086
:103C70000E94041A03C081E08093000180913904FE
:103C8000877009F4A9CFF6018281882309F4A4CFB3
:103C90008091C10782FFA0CF82E00E94A8169CCF2E
:103CA00080910001882309F4D2C4570180EEA81A3C
:103CB000B10810915C0480915A04182B98E0A91661
:103CC000B10408F07BC097012770332781E090E0B2
:103CD00001C0880F2A95EAF7002309F46CC0182B5D
:103CE0008091B3079091B407009709F4B0C4E8E05D
:103CF000AE16B10408F078C0612F0E94D50681117C
:103D000003C081E00E94041AF6018281882309F42D
:103D1000E5C410922308F4E0EF16FDE5FF0608F075
:103D200095C02BEFE2162CE5F20630F4C701825065
:103D30009C45449708F097C00E9411169093C107C4
:103D40008093C007E2E1EE16ECE5FE0609F4ABC194
:103D500008F0EAC029E0E2162CE5F20609F481C178
:103D600008F0ADC085E0E8168CE5F80609F469C1F5
:103D700008F097C0E3E0EE16ECE5FE0609F459C141
:103D800008F05BC18091C007816022E0E2162CE55B
:103D9000F20609F4C6C06091C0071091C10784E023
:103DA00090E00E940D2C612F82E290E00E940D2C89
:103DB0000E94DB1663CF8095182392CF002309F46D
:103DC00067C4F092CB03E092CA030E940A06609394
:103DD000AA077093AB078093AC079093AD0710923E
:103DE000B2071092B1077CCFFC0120813181E2162D
:103DF000F30609F026C4011126C41092B00780E032
:103E00000E94041A24C4E6EFEE16ECE5FE06B9F0B3
:103E100090F027EFE2162CE5F20609F075CF27E2C5
:103E200045EE66EE31C427E245EE65EE2DC426E28E
:103E300041EE60EE29C427E245EE64EE25C426E299
:103E400041EE62EE21C428E241E0EFCF36EAE3160C
:103E50003DE5F30609F470CFF0F492E6E9169DE52E
:103E6000F90609F469CF86E1E8168CE5F80609F051
:103E7000B2C480915A048A7A91E009F490E0909358
:103E8000CC0369E2811165E388EA93E00E9416069B
:103E90000E941F16F3CEC7018E5A9D45039718F74F
:103EA0004BCF8091C007806237E0E3163CE5F30614
:103EB000C1F108F4D2C08091C007806432C09DE097
:103EC000E9169CE5F90609F4D6C0A0F48091C00774
:103ED0008E7FFBE0EF16FCE5FF0619F18091C0072D
:103EE0008C602CE0E2162CE5F206D8F08091C00739
:103EF0008D7F17C03FE0E3163CE5F30609F4CBC025
:103F000008F4BDC090E1E9169CE5F90609F4C7C0C4
:103F10008091C0078F7BE1E1EE16ECE5FE0609F02B
:103F20003ACF8093C00737CFE114FDE5FF0609F4CF
:103F3000C4C0D8F53BEFE3163CE5F30609F485C0B1
:103F4000D0F494E1E9169CE5F90609F4C4C008F43C
:103F5000B0C0F5E1EF16FCE5FF0609F01CCF80913B
:103F6000C00782FB992790F921E0922790FB82F904
:103F700090FB83F9D6CF2DEFE2162CE5F20609F47B
:103F800082C008F466C08EEFE8168CE5F80609F4E6
:103F90007EC08091C10783609FEFE9169CE5F9061A
:103FA00009F0F9CE8093C107F6CEE2E6EE16EDE514
:103FB000FE0609F49BC0A0F422E0E2162DE5F2060D
:103FC00009F492C008F47DC060E083E0E8168DE556
:103FD000F80609F0E0CE8EE090E00E940D2CDBCEDA
:103FE0009EEAE9169DE5F90601F168F49091C00793
:103FF000892F8E7F90FF8160F6EAEF16FDE5FF06C0
:1040000009F48FCFC8CE2FEAE2162DE5F20679F13A
:1040100030EBE3163DE5F30609F0BDCE9091C10704
:10402000892F877F93FF8860BDCF8091C10788600B
:10403000B9CF8091C007826074CF8091C00784603F
:1040400070CF8091C00788606CCF8091C10781607C
:10405000A9CF8091C1078260A5CF8091C007806100
:1040600060CF0E94DB168091C00780685ACF809194
:10407000C107877F97CF8091C0078B7F52CF8091F8
:10408000C007877F4ECF8091C1078E7F8BCF8091F5
:10409000C1078D7F87CF8091C0078F7E42CF8091EF
:1040A000C0078F7D3ECF0E94DB168091C0078F77BF
:1040B00038CF8091C007837F34CF8091C1078C7F38
:1040C00071CF8091C107982F909591708E7F892B29
:1040D00090FB81F967CF0E94DB169091C007892F72
:1040E00097FB87F980581DCF61E075CF9091C0078D
:1040F000892F8F7E94FF806114CF8091CC03811132
:1041000004C089E20E94A011C3CE85E3FBCF4FE536
:1041100057E069E677E00E94F506B0CD49E657E042
:104120006FE577E0F8CF4BE457E065E577E0F3CF54
:1041300045E557E06BE477E0EECF41E357E06EE30F
:1041400077E0E9CF4EE357E061E377E0E4CF44E284
:1041500057E067E177E0DFCF4BEF56E069E077E0CB
:10416000DACF49E057E06BEF76E0D5CF81E00E94EF
:10417000550484CD88E0FBCF0E94DB169FEFE4E37B
:10418000FCE09150E040F040E1F700C000000E94E8
:104190004F138091C10782FB882780F991E089271E
:1041A0000E94021CF601828100811181882309F49A
:1041B00045C0C8010E94D511F82E682FC8010E9481
:1041C0004912B8018F2D0E94F10F0E940C108C0132
:1041D000882EF601F280B580B2943FE0B322809140
:1041E00039048770C1F0AF2CFF20B1F0812F807FA0
:1041F000803421F080E2800F883068F08091C10720
:1042000082FF09C082E00E94A8168091390487705D
:10421000AA24A3948111A12C912E92942FE0922292
:10422000FBE0F91508F471C0E92DF0E0E45AF34D14
:104230000C94982B81E0B4CF80E0B2CFC8010E94EB
:104240001612F82EBECF212F2F70E22E107F19F0FC
:10425000E29490EFE922FF20B9F0EE2069F080E2CD
:10426000800F883010F0811009C080915A04E82A2C
:10427000E0925A040E941F16802F45C080915B0473
:10428000E82AE0925B04F6CF802F0E94DA19EE2034
:10429000E1F1005E8E2D083010F0811003C00E9405
:1042A000991102C00E9492110E941F162EC0312F38
:1042B0003F70E32E107F103219F0E29480EFE82275
:1042C000882089F081E0881609F478C0FF2009F47D
:1042D00082C0BB2009F478C0F601858180FFCCCF75
:1042E0008F70858371C02091C10722FD44C0FF20DB
:1042F000D9F1EE2039F080915A04E82AE0925A046C
:104300000E941F1680E00E946A1AE92DE850FF0BF8
:10431000349710F40E947706AA20A9F080913904FE
:1043200080FD11C0F60112828595859585950E94C4
:10433000C416C6010E94DA1D8091390485958595C1
:1043400085950E94961685E0F601DE011196019092
:104350000D928A95E1F709811A81C8010E9416120F
:10436000B8010E94F10F38CC80E00E94DA19EE20EB
:1043700061F28E2D94CFFF20A1F090915C04892FE3
:104380008E29B11003C00E94D019BFCFE1E0BE1248
:10439000FACF22FFBACF981709F4B7CF80935C0405
:1043A000B4CFB11006C00E948C118E2D0E94C91985
:1043B000ACCFF1E0BF1609F4A8CFF5CFFF2031F064
:1043C00025E02B1508F4A1CF8E2DDDCF34E03B1571
:1043D00008F49BCFEACFBB2041F3F9E38F122AC147
:1043E0002FEF37EE83E0215030408040E1F700C0EE
:1043F000000020C1812F86958695837061F0813001
:1044000009F083CFC8019370F11002C090E080E002
:104410000E944B067ACFC8019370F11002C090E061
:1044200080E00E94610671CF812F837009F03FC048
:10443000F1106BCF402F429546954770440F440FC3
:10444000802F8F7090E0042E02C0880F991F0A946D
:10445000E2F730E020E004FF09C02FE030E002C0C6
:10446000220F331F4A95E2F7209530951695169541
:104470001370123099F078F440915D0450915E040D
:10448000113039F0822B932B842395230E94D4166C
:104490003CCF842B952B822B932BF8CF822B932B05
:1044A00020915D0430915E0482279327EFCF86959B
:1044B000FF2011F0812F8170882309F426CF402F2F
:1044C000429546954770440F440F802F8F7090E0BF
:1044D000042E02C0880F991F0A94E2F730E020E012
:1044E00004FF09C02FE030E002C0220F331F4A95BD
:1044F000E2F720953095169516951370123099F0C5
:1045000078F440917A0450917B04113039F0822B79
:10451000932B842395230E948F16F7CE842B952B03
:10452000822B932BF8CF822B932B20917A043091FE
:104530007B0482279327EFCF1F70FF2029F0812F64
:104540000E94C416802F1FCF802F0E94C919812F6F
:104550000E949616DACE802F92EF891699F198155F
:1045600070F0E0EF8E16D1F0F1EF8F1691F0FF2092
:1045700009F45BC0B11080CE812F8F7127C023EF6B
:10458000821639F134EF8312F2CF8091C10782FD98
:104590002EC0812F8F71FF20D9F218C0FF2069F043
:1045A00084E08B1508F4B1CE1F7181E090E002C069
:1045B000880F991F1A95E2F7B8CF95E09B1508F47C
:1045C000A4CEF2CF812F8F71F110C2CF0E94C416FA
:1045D0009CCE90E080E0FF2009F49DCF1F7181E028
:1045E00090E002C0880F991F1A95E2F794CFFF2040
:1045F00089F01F71812F0E94C4168091C10782FF2C
:1046000007C0E8E01E9FC001112483608093390435
:10461000812FDCCF81E00E94A816F1E0FB1508F0A5
:1046200074CE82E00E94A81670CEBB2039F0893388
:1046300009F4D6CE802F0E94DA1967CE812F8F71B0
:1046400087CF002321F0FC01818585FFD8CBF4EFD3
:10465000EF16FCE5FF0609F4EACB08F0D4CB39ED00
:10466000E3163CE5F30609F4DECB8AEDE8168CE5AB
:10467000F80609F4E8CB98EDE9169CE5F90609F08F
:1046800043CB26E241EE61EEC6010E947A1DF6CAD6
:104690008091CA039091CB03E816F90609F020CB6C
:1046A0001092CB031092CA031092AA071092AB0784
:1046B0001092AC071092AD0792CB85E0DE01119607
:1046C00001900D928A95E1F7F601228189819A8104
:1046D000211186CA0E941612182F8ACAF6E1EF1617
:1046E000FCE5FF0609F409CD80915A0482722BEC97
:1046F000E2162CE5F20609F42ACDE0F596ECE9166F
:104700009CE5F90609F40FCDE0F4F4ECEF16FCE5B6
:10471000FF0609F4FCCC08F001CD33ECE3163CE5D0
:10472000F30609F03FCD8091250891E08927809319
:104730002508109229018091240881608093240823
:104740009DCA98ECE9169CE5F90609F4F6CC08F444
:10475000EFCCF9ECEF16FCE5FF0609F4F3CC47E1EA
:1047600057E064E277E02AECE2162CE5F20609F461
:10477000D2CC18CD30EDE3163CE5F30609F4FACCC3
:10478000B0F4EDECEE16ECE5FE0609F4EACC08F424
:10479000E3CC2EECE2162CE5F20609F4E7CC83E03C
:1047A0003FECE3163CE5F30609F4E1CCFBCC87EDE6
:1047B000E8168CE5F80640F48DE092EDE9169CE5EC
:1047C000F90608F4D4CC5ACAEEE5EE16EDE5FE067D
:1047D00009F454CAE7CCFBE5EF16FDE5FF0609F442
:1047E00029CD78F4E1143CE5F30609F4C5CC8FED4E
:1047F000E8168CE5F80609F0D5CC0E949A1B0E94B9
:10480000A2199DE5E916F90609F4C3CC08F414CD04
:10481000F8EAEF16FDE5FF0691F3C4CC1F93CF93A2
:10482000DF9380910604807F09F049C080910304E2
:10483000882309F444C080913804D0910704609122
:10484000010470910204A0910404B0910504C62FE4
:10485000C72316E0D81799F190E0109711F0CF3FD9
:1048600019F401968770F6CF189F9001199F300DAB
:104870001124F901E85FFB4F41814713F2CF4081DA
:104880004613EFCF42814111ECCF438154814A1B43
:104890005B0B483C510528F7809106048F708061BE
:1048A00080930604F901E35FFB4F80818F70806184
:1048B000808381E094E00E94DA1D0E94CB11DF9199
:1048C000CF911F910895A1E1B0E0E9E6F4E20C94E4
:1048D000362B8C0185E0F801DE011D9601900D92CA
:1048E0008A95E1F7F801E28081E0A82E84E0B82EF5
:1048F00060910404709105046115710509F426C1E5
:104900009091010440910204892F84238F3F09F480
:104910001DC120813181C380D480F0900304F60151
:10492000E61BF70BFF2009F4DCC080910604582F2A
:10493000507FE83CF10508F09FC051116BC0FE2C80
:10494000431314C0921312C0E11010C08F70806125
:1049500080930604C5010E94DA1D80910604F801C7
:1049600085838F2D6196EAE00C94522BC114D104FB
:1049700029F0822F83238F3F09F003C180E0F82FB5
:10498000F170DF2E80FF3CC0809138044091070415
:1049900056E0841315C02D873E878D859E850E9425
:1049A0000912292F22952F702230F0F0243018F5AB
:1049B0009F70F1F0F8019581907FD1F4D12C1EC049
:1049C00090E0589FF001599FF00D1124E85FFB4FD4
:1049D0006181361306C06081261303C06281E6122E
:1049E0000FC001968770D5CF9F7011F0882331F3E7
:1049F000805E883018F3C8010E94DA1DFD2CB1CF0B
:104A0000EE2009F4AECF8091060481608093060405
:104A1000F12CA7CF431306C0921304C0F801EE2077
:104A200009F479C0C8010E947F12882309F1EE20A1
:104A3000F9F080910604803270F0209101043091E9
:104A4000020438872F831986DB86CA868C87CE01BD
:104A500007960E94DA1D86E0F801A1E0B4E001901B
:104A60000D928A95E1F70E940E24FF24F39479CFEA
:104A7000C8010E94DA1DF9CF51110AC081E094E00B
:104A80000E94DA1D86E0F50111928A95E9F7C0CF00
:104A900043130FC092130DC0E1100BC0F8018583C2
:104AA000C8010E94DA1D86E0F50111928A95E9F7A6
:104AB00058CFC8010E947F128823D1F2EE20C1F2A4
:104AC00080910604803238F2209101043091020472
:104AD0003A8329831B82DD82CC828E83CE010196AC
:104AE000B8CFE83CF105F8F6FE2CEE2009F24313AE
:104AF0001FC092131DC08091060480FD10C0982F26
:104B0000907F69F0F8018583903F31F0982F907F76
:104B1000905F8F70892B8583C8010E94DA1D86E023
:104B2000F801A1E0B4E001900D928A95E1F719CF68
:104B3000C8010E947F1281118ECF8091060481608E
:104B400080930604C8010E94DA1D0BCFEE2009F401
:104B50008FCFC8010E947F12F82E882309F488CFD6
:104B600086E0F801A1E0B4E001900D928A95E1F7AA
:104B700080910104909102040E9409120E940E2467
:104B8000F0CE81E08E25FBCEA7E1B0E0EAECF5E2C5
:104B90000C943D2B4B8B5C8B6D8B7E8B8F8B6111C3
:104BA00010925B041A8A198A85E0FE017396DE0171
:104BB0001D9601900D928A95E1F786E0FE013D96E3
:104BC000DE01179601900D928A95E1F7CE010796C6
:104BD0000E946324882359F016E080913804909154
:104BE0000704891343C06796E3E00C94592B86E0D1
:104BF000FE013796DE01119601900D928A95E1F73C
:104C00008A859B85892B41F38F81988589238F3FE6
:104C100019F32091070430E0C901019687709927A4
:104C2000409138044817190671F40E94DB1610925F
:104C300007041092380486E0E1E0F4E0DF011D9201
:104C40008A95E9F7C9CF96E0929FD001939FB00D66
:104C50001124A85FBB4FFE01319601900D929A95E9
:104C6000E1F7809307040E94CB11B6CF819FC0016A
:104C70001124885F9B4F0E946324882309F4B3CFDB
:104C80008091380490E001968770992780933804CA
:104C9000A4CFAAE1B0E0EFE4F6E20C942E2B8E0153
:104CA0000F5F1F4F88E1D8011D928A95E9F798E1BF
:104CB000E92E92E0F92E812C912C54018394222428
:104CC0002394312C4FE2C42E42E0D42EF70181917F
:104CD0007F018F3F09F456C0F894E82FE295EF70FA
:104CE000F0E021A18F70A10102C0440F551F8A95E9
:104CF000E2F7CA01922F982B91A392A18095892364
:104D000082A3789400C089E292E09A8F898FF8019B
:104D1000240135014094509460947094A98DBA8D0B
:104D20002D91BA8FA98F40815181628173812F3F6C
:104D300009F46BC0822F82958F7090E0DC01909611
:104D40008C9190E02F7002C0959587952A95E2F797
:104D500080FD5BC0482959296A297B2940835183FA
:104D6000628373833496498D5A8DC416D506B1F685
:104D7000F701319780818F3F11F00E94970F50EA21
:104D80005A95F1F7880C991CAA1CBB1C89E2E816FD
:104D900082E0F80609F09ACF48E150E0B80182E6D7
:104DA00094E00E94C92B892BA9F188E1F801A2E6C1
:104DB000B4E001900D928A95E1F781E0809361045F
:104DC0000E946E1D9093600480935F0480915F0445
:104DD000909160040E945F1D059700F148E150E04A
:104DE00062E674E08EE794E00E94C92B892BD9F02B
:104DF00088E1E2E6F4E0AEE7B4E001900D928A9536
:104E0000E1F781E0109261040AC044215521662136
:104E10007721A4CF809161048111D8CF80E06A9678
:104E2000E2E10C944A2B80E0EDCF1F921FB61F9257
:104E300011248F939F93AF93BF938091BB078111F0
:104E400013C08091BC079091BD07A091BE07B0919F
:104E5000BF074196A11DB11D8093BC079093BD076C
:104E6000A093BE07B093BF07BF91AF919F918F9161
:104E70001F901FBE1F901895CDB7DEB767970FB66E
:104E8000F894DEBF0FBECDBF85B7806885BF85B7FC
:104E9000806885BF84B7877F84BF0FB6F894A895D4
:104EA00080916000886180936000109260000FBE66
:104EB00080E890E00FB6F8948093610090936100D1
:104EC0000FBE85E99FE09093A7038093A6030E94FD
:104ED00081040E944C058091E20084608093E2008E
:104EE00078948091EA078823A1F01091E9001F705F
:104EF0009091EC00892F817090FD80E8182B109222
:104F0000E9008091E80083FD0E94F1161F70109364
:104F1000E90082E084BD93E095BD9AEF97BD809350
:104F20006E0008E112E0D8018D918D018F3F11F0E4
:104F30000E94970FB2E009321B07A9F709E212E0BD
:104F40008FE2E82E82E0F82EF80181918F018F3FE9
:104F500011F00E94970FE016F106B1F788E1EEE735
:104F6000F4E0DF01282F1D922A95E9F7E2E6F4E04C
:104F7000DF011D928A95E9F790E080E00E94F72B0F
:104F8000883E9E4F11F00E949A1B82E090E00E94A2
:104F9000EF2B809396040E9411169093C107809383
:104FA000C0070E944926EFE3FCE93197F1F700C002
:104FB00000000E94492680917E0480FF08C06FEFA8
:104FC0007FEF90E080E00E942B2C0E944F1383E043
:104FD00090E00E94EF2B90E00E94D4160E94601493
:104FE0001092F8078FEF9FEF9093120880931108AB
:104FF00090931408809313089093160880931508D3
:10500000909318088093170890931A0880931908B2
:1050100090931C0880931B0890931E0880931D0892
:105020009093200880931F081092B4049093CE04AC
:105030008093CD049093D0048093CF049093D204B6
:105040008093D1049093D4048093D3049093D60496
:105050008093D5049093D8048093D7049093DA0476
:105060008093D9049093DC048093DB0490E080E08B
:105070000E94F72B883E9E4F21F00E949A1B0E94AF
:10508000F61546E050E06CE170E085E298E00E94A1
:10509000DF2B10922408809125088C7F11F40E9448
:1050A000F61581E091E09093B8078093B70780915F
:1050B000EA07853089F410E4F12E03E0E02E00E1E8
:1050C00012E18091EA07853009F4F7C00E94DB16EF
:1050D0000E9477061092E1040E944926A7E9B4E0F5
:1050E000BD87AC87EEE7F4E0FB8BEA8BDF01E7E9F5
:1050F000F4E001911191219131914D915D916D916A
:105100007D9184E0EF3AF80709F42DC104171507E3
:105110002607370771F3A7E3B2E0B98BA88B1B868C
:10512000EA89FB8981909190A190B190FB8BEA8BE9
:10513000EC85FD8581919191A191B191FD87EC87DD
:1051400088159905AA05BB0509F4A8C09C01AD0105
:10515000282539254A255B252C8B3D8B4E8B5F8B73
:10516000488959895F874E87712C212C312C210168
:1051700023948C899D89AE89BF8982219321A421A2
:10518000B521892B8A2B8B2B09F474C0750164011E
:10519000C220D320E420F5207E825B855F8381E0FE
:1051A000C114D104E104F10409F480E088870E946D
:1051B0006E1D8160782F9A8789874E815F8168850F
:1051C0008A850E94C425CD28CE28CF2831F0AE850F
:1051D000BF858C918F3F09F03DC1F12C0F2D10E060
:1051E0008091B404800F912F911D09976CF1E8E034
:1051F000CE2ED12CC01AD10AB8016B547B4FA60118
:1052000085EB94E00E94D62BB80163547B4FA60136
:105210008DEB94E00E94D62BA601440F551FB801D8
:10522000660F771F63537B4F8DEC94E00E94D62B63
:10523000B8016B537B4FA60185EC94E00E94D62BFE
:1052400088E08F198093B4048091B40490E0A62D77
:10525000B0E09D01220F331F23563D4FAA0FBB1F05
:10526000BD0162567D4F41E0480F9F1508F4F6C01E
:105270008093B4047394220C331C441C551CEE859B
:10528000FF853196FF87EE87F1E17F1272CFEC85C3
:10529000FD85349780829182A282B3822B852F5F15
:1052A0002B87488959894F5E5F4F598B488B263031
:1052B00009F036CF0E940A067AC08091EA0784304E
:1052C00009F439C00E9418158091E10481110DC0C4
:1052D0000E94A00D10921001809125088370809388
:1052E0000F010E940314E092290121E02093E104C0
:1052F0001092BB0748E150E00FB6F894A895409390
:1053000060000FBEF092600083B7817F846083BF2E
:1053100083B7816083BF7894889583B78E7F83BF7E
:105320000FB6F894A8958091600088618093600022
:10533000109260000FBE8091E907882309F4C1CE66
:105340000E944926EEE7F4E081919191A191B191FB
:10535000892B8A2B8B2B09F096C086E994E08E1757
:105360009F0791F7AECE041715072607370709F0F8
:10537000D2CE0E946E1D8C0180917C0490917D04A0
:1053800008171907A1F08FEF89838A831B820E9477
:105390006E1D8160782F9D838C8349815A816B813A
:1053A0008D810E94C42510937D0400937C0480911C
:1053B000B1079091B207892B09F43EC04091A6072E
:1053C0005091A7076091A8077091A9072FB7F8948B
:1053D0008091BC079091BD07A091BE07B091BF0717
:1053E0002FBF841B950BA60BB70B4091A2075091C2
:1053F000A3076091A4077091A50784179507A607D6
:10540000B707D0F08091B1079091B2070E94D41AEB
:105410001092B2071092B1071092A6071092A70738
:105420001092A8071092A9071092A2071092A30742
:105430001092A4071092A5070E9418150E947706E3
:105440009091AF04891709F432CE8093AF040E9483
:105450000A062DCE682EFF24F394C0CE90E0FC0106
:10546000EC54FB4FD9015C915183DB015C91518776
:10547000618A880F991FFC01EC54FB4F128E118E2C
:1054800091E0842FF0CE09BD19BD09B400FEFDCF17
:105490008091D8008F7D8093D8008091E000826059
:1054A0008093E0008091E00081FDFCCF0E94DB163C
:1054B00008CE1092B9008CE08093B8000895B0E057
:1054C000A0E0E5E6FAE20C94352BB82EEB010E9441
:1054D0006E1D6C01EE24E394F12CC431D10560F013
:1054E00025E0E22EF12CCF3FDC0731F0CE0164E164
:1054F00070E00E941A2B7B0184EAA82E94E8992E72
:105500001092BC00A092BC000E946E1D8C01809184
:10551000BC0087FF0DC08091B900887F8830F9F00A
:105520008091B900887F8031D1F00FEF1FEF08C064
:10553000C8010E945F1DE816F90648F70EEF1FEF3D
:10554000CF3FDC07E9F2C6010E945F1DC817D907EB
:10555000B8F6C801CDB7DEB7EBE00C94512BB09292
:10556000BB009092BC000E946E1D8C018091BC001B
:1055700087FF0AC08091B900887F883111F080349C
:10558000A1F610E000E0E5CFC8010E945F1DE8161B
:10559000F90660F7D3CF0F931F93CF93DF93EB01FF
:1055A0008093BB0084E88093BC000E946E1D8C0138
:1055B0008091BC0087FF11C02091B900287F81E055
:1055C00090E0283211F490E080E091958195910966
:1055D000DF91CF911F910F910895CF3FDC0741F3E9
:1055E000C8010E945F1DC817D90710F78EEF9FEF03
:1055F000EFCFB0E0A0E0EFEFFAE20C94382B6B01B4
:105600008A017901B9010E945F2AE6010C0D1D1D76
:10561000C017D10711F097FF08C024E92093BC0000
:10562000CDB7DEB7E8E00C94542BB70189910E9406
:10563000CB2AEECFAA1BBB1B51E107C0AA1FBB1F81
:10564000A617B70710F0A61BB70B881F991F5A950E
:10565000A9F780959095BC01CD0108952F923F92B6
:105660004F925F926F927F928F929F92AF92BF9272
:10567000CF92DF92EF92FF920F931F93CF93DF931E
:10568000CDB7DEB7CA1BDB0B0FB6F894DEBF0FBE7B
:10569000CDBF09942A88398848885F846E847D84C8
:1056A0008C849B84AA84B984C884DF80EE80FD80CA
:1056B0000C811B81AA81B981CE0FD11D0FB6F89440
:1056C000DEBF0FBECDBFED01089597FB072E16F488
:1056D000009407D077FD09D00E941A2B07FC05D053
:1056E0003EF4909581959F4F0895709561957F4FF9
:1056F0000895052E97FB1EF400940E94902B57FDF1
:1057000007D00E949E2B07FC03D04EF40C94902BE4
:1057100050954095309521953F4F4F4F5F4F0895DD
:1057200090958095709561957F4F8F4F9F4F08950D
:10573000EE0FFF1F0590F491E02D0994A1E21A2EBF
:10574000AA1BBB1BFD010DC0AA1FBB1FEE1FFF1F25
:10575000A217B307E407F50720F0A21BB30BE40B75
:10576000F50B661F771F881F991F1A9469F76095BC
:105770007095809590959B01AC01BD01CF01089576
:10578000FB01DC0102C005900D9241505040D8F75A
:105790000895FB01DC0104C08D910190801921F472
:1057A00041505040C8F7881B990B0895FB01DC015C
:1057B00002C001900D9241505040D8F70895DC018D
:1057C000CB01FC01F999FECF06C0F2BDE1BDF89A0C
:1057D000319600B40D9241505040B8F70895F999B0
:1057E000FECF92BD81BDF89A992780B50895A8E1B2
:1057F000B0E042E050E00C94E12BDC01A40FB51FB7
:105800004150504048F0CB01840F951F2E910E94CB
:105810000E2C41505040D0F70895262FF999FECF15
:1058200092BD81BDF89A019700B4021639F01FBAF3
:1058300020BD0FB6F894FA9AF99A0FBE0895039610
:10584000272F0E940E2C0E940D2C252F0E940E2C1B
:10585000242F0C940E2C0196272F0E940E2C0C94B2
:105860000D2CF894FFCFD00DDC0D0C0E4E0E930EC8
:10587000AF0EB40EB90EBC0EBF0EC20EC50EC80ED2
:10588000CB0ECE0ED10ED60ED90EDC0EDF0E4F0F84
:10589000540F570F5B0F680F6B0F760F790F840F44
:1058A000870F920FD017F8179019F81790192B1827
:1058B0004C18901949195619232123215721572192
:1058C000FA2185218521852114229C22AB22AB223D
:1058D0000107060F1306060A13051305063905FF0F
:1058E000FF01FF00000000000000000000000000B9
:1058F00000000000000000FF000300FFB42F0021A3
:105900001408001F001F14080020002014080023A2
:10591000002F02080024002302080025003002089E
:105920000026002502080027002602080027023072
:105930000008002F14341408003014321408003604
:1059400002370208002D001F02080035141E14083B
:105950000036006400080037006402080024022DAD
:105960000208002F00211408001E002E0008001F4E
:10597000003502080020003500080022002214082B
:105980000023002F02080024003002080026002D0A
:1059900000080027002D000800270230000800350D
:1059A0001423140800110033000800060032000818
:1059B0000024022E020800818283E200E900EA004E
:1059C000B500B600B700CD008301CC008A0192017A
:1059D00094012102230224022502260227022A0220
:1059E000B300B4006F007000C6F0F1F49796373141
:1059F000303233939594923435676636F5F7F60076
:105A00003131295A1B750A00FF01020304050607FC
:105A100008090A0B0C0D0E0F10111213141516178E
:105A200018191A1B1C1D1E1F20212223242526277E
:105A300028292A2B2C2D2E2F30313233343536376E
:105A400038393A3B3C3D3EFFFFFFFF3F4041424378
:105A50004445464748494A4BFFFF4CFF4D4E4FFFD8
:105A6000FF50FFFFFFFF5152535455565707051F74
:105A7000052B0537054305550561056D0579058B32
:105A8000059705A305AF05C105CD05D90507141375
:105A9000141F142B14371443144F145B146714731E
:105AA000147F148B149714A914C114CD14D9140A9B
:105AB0001E191E251E311E3D1E491E551E611E6DDE
:105AC0001E791E851E911E9D1EAF23C11ECD1ED99F
:105AD0001E0B271C272827342740274C27582764CC
